{
  "contractName": "SingleTokenGame",
  "abi": [
    {
      "inputs": [
        {
          "name": "_game_id",
          "type": "uint256"
        },
        {
          "name": "_name",
          "type": "string"
        },
        {
          "name": "_game_times",
          "type": "uint256"
        },
        {
          "name": "_price",
          "type": "uint256"
        },
        {
          "name": "_price_upper_rate",
          "type": "uint256"
        }
      ],
      "payable": false,
      "stateMutability": "nonpayable",
      "type": "constructor"
    },
    {
      "anonymous": false,
      "inputs": [
        {
          "indexed": false,
          "name": "bidder",
          "type": "address"
        },
        {
          "indexed": false,
          "name": "amount",
          "type": "uint256"
        },
        {
          "indexed": false,
          "name": "event_msg",
          "type": "string"
        }
      ],
      "name": "SendRecommend",
      "type": "event"
    },
    {
      "anonymous": false,
      "inputs": [
        {
          "indexed": false,
          "name": "bidder",
          "type": "address"
        },
        {
          "indexed": false,
          "name": "amount",
          "type": "uint256"
        },
        {
          "indexed": false,
          "name": "event_msg",
          "type": "string"
        }
      ],
      "name": "SendPlatformFee",
      "type": "event"
    },
    {
      "anonymous": false,
      "inputs": [
        {
          "indexed": false,
          "name": "bidder",
          "type": "address"
        },
        {
          "indexed": false,
          "name": "amount",
          "type": "uint256"
        },
        {
          "indexed": false,
          "name": "event_msg",
          "type": "string"
        }
      ],
      "name": "CalcBonus",
      "type": "event"
    },
    {
      "anonymous": false,
      "inputs": [
        {
          "indexed": false,
          "name": "bidder",
          "type": "address"
        },
        {
          "indexed": false,
          "name": "amount",
          "type": "uint256"
        },
        {
          "indexed": false,
          "name": "event_msg",
          "type": "string"
        }
      ],
      "name": "TransferAmount",
      "type": "event"
    },
    {
      "anonymous": false,
      "inputs": [
        {
          "indexed": false,
          "name": "bidder",
          "type": "address"
        },
        {
          "indexed": false,
          "name": "amount",
          "type": "uint256"
        },
        {
          "indexed": false,
          "name": "buy_time",
          "type": "uint256"
        },
        {
          "indexed": false,
          "name": "event_msg",
          "type": "string"
        }
      ],
      "name": "BuyGameEvent",
      "type": "event"
    },
    {
      "constant": true,
      "inputs": [],
      "name": "getNow",
      "outputs": [
        {
          "name": "nowvalue",
          "type": "uint256"
        }
      ],
      "payable": false,
      "stateMutability": "view",
      "type": "function"
    },
    {
      "constant": true,
      "inputs": [],
      "name": "getDecimals",
      "outputs": [
        {
          "name": "",
          "type": "uint256"
        }
      ],
      "payable": false,
      "stateMutability": "view",
      "type": "function"
    },
    {
      "constant": true,
      "inputs": [],
      "name": "getOwner",
      "outputs": [
        {
          "name": "",
          "type": "address"
        }
      ],
      "payable": false,
      "stateMutability": "view",
      "type": "function"
    },
    {
      "constant": true,
      "inputs": [],
      "name": "getCurrentRoundInfo",
      "outputs": [
        {
          "name": "game_id",
          "type": "uint256"
        },
        {
          "name": "name",
          "type": "string"
        },
        {
          "name": "begin_time",
          "type": "uint256"
        },
        {
          "name": "game_times",
          "type": "uint256"
        },
        {
          "name": "last_buy_time",
          "type": "uint256"
        },
        {
          "name": "over_time",
          "type": "uint256"
        },
        {
          "name": "price",
          "type": "uint256"
        },
        {
          "name": "price_upper_rate",
          "type": "uint256"
        },
        {
          "name": "status",
          "type": "uint8"
        },
        {
          "name": "prize_value",
          "type": "uint256"
        },
        {
          "name": "buy_count",
          "type": "uint256"
        },
        {
          "name": "last_buy_user_address",
          "type": "address"
        },
        {
          "name": "next_change_rate_count",
          "type": "uint256"
        }
      ],
      "payable": false,
      "stateMutability": "view",
      "type": "function"
    },
    {
      "constant": true,
      "inputs": [],
      "name": "askprice",
      "outputs": [
        {
          "name": "price",
          "type": "uint256"
        }
      ],
      "payable": false,
      "stateMutability": "view",
      "type": "function"
    },
    {
      "constant": false,
      "inputs": [
        {
          "name": "recommend_user",
          "type": "address"
        }
      ],
      "name": "buy_token",
      "outputs": [
        {
          "name": "success",
          "type": "bool"
        }
      ],
      "payable": true,
      "stateMutability": "payable",
      "type": "function"
    },
    {
      "constant": true,
      "inputs": [
        {
          "name": "buyer",
          "type": "address"
        }
      ],
      "name": "getBuyerBuyCount",
      "outputs": [
        {
          "name": "",
          "type": "uint256"
        }
      ],
      "payable": false,
      "stateMutability": "view",
      "type": "function"
    },
    {
      "constant": true,
      "inputs": [
        {
          "name": "buyer",
          "type": "address"
        }
      ],
      "name": "getBuerIncomeInvestment",
      "outputs": [
        {
          "name": "income",
          "type": "uint256"
        },
        {
          "name": "investment",
          "type": "uint256"
        },
        {
          "name": "recommend_user_address",
          "type": "address"
        }
      ],
      "payable": false,
      "stateMutability": "view",
      "type": "function"
    },
    {
      "constant": true,
      "inputs": [],
      "name": "checkGameAndPrize",
      "outputs": [
        {
          "name": "",
          "type": "bool"
        }
      ],
      "payable": false,
      "stateMutability": "view",
      "type": "function"
    },
    {
      "constant": false,
      "inputs": [],
      "name": "PrizeGame",
      "outputs": [
        {
          "name": "",
          "type": "bool"
        }
      ],
      "payable": false,
      "stateMutability": "nonpayable",
      "type": "function"
    },
    {
      "constant": false,
      "inputs": [],
      "name": "kill",
      "outputs": [
        {
          "name": "",
          "type": "bool"
        }
      ],
      "payable": false,
      "stateMutability": "nonpayable",
      "type": "function"
    }
  ],
  "bytecode": "0x6080604052600a60005560066001556012600255600a600355601e6005553480156200002a57600080fd5b50d380156200003857600080fd5b50d280156200004657600080fd5b506040516200364438038062003644833981018060405260a08110156200006c57600080fd5b810190808051906020019092919080516401000000008111156200008f57600080fd5b82810190506020810184811115620000a657600080fd5b8151856001820283011164010000000082111715620000c457600080fd5b505092919060200180519060200190929190805190602001909291908051906020019092919050505033600460006101000a81548173ffffffffffffffffffffffffffffffffffffffff021916908373ffffffffffffffffffffffffffffffffffffffff1602179055506000429050600081905060006200015d86846200034e6401000000000262002a1f179091906401000000009004565b90506000600154600a0a860290506000600254600a0a860290506000604690506101e0604051908101604052808c81526020018b81526020018781526020018a815260200186815260200185815260200184815260200184815260200183815260200183815260200160006001811115620001d457fe5b81526020016000815260200160008152602001600460009054906101000a900473ffffffffffffffffffffffffffffffffffffffff1673ffffffffffffffffffffffffffffffffffffffff16815260200182815250600660008201518160000155602082015181600101908051906020019062000253929190620003d9565b5060408201518160020155606082015181600301556080820151816004015560a0820151816005015560c0820151816006015560e082015181600701556101008201518160080155610120820151816009015561014082015181600a0160006101000a81548160ff02191690836001811115620002cc57fe5b021790555061016082015181600b015561018082015181600c01556101a082015181600d0160006101000a81548173ffffffffffffffffffffffffffffffffffffffff021916908373ffffffffffffffffffffffffffffffffffffffff1602179055506101c082015181600e0155905050505050505050505050505062000488565b6000808284019050838110151515620003cf576040517f08c379a000000000000000000000000000000000000000000000000000000000815260040180806020018281038252601b8152602001807f536166654d6174683a206164646974696f6e206f766572666c6f77000000000081525060200191505060405180910390fd5b8091505092915050565b828054600181600116156101000203166002900490600052602060002090601f016020900481019282601f106200041c57805160ff19168380011785556200044d565b828001600101855582156200044d579182015b828111156200044c5782518255916020019190600101906200042f565b5b5090506200045c919062000460565b5090565b6200048591905b808211156200048157600081600090555060010162000467565b5090565b90565b6131ac80620004986000396000f3fe6080604052600436106100b9576000357c010000000000000000000000000000000000000000000000000000000090048063747dff4211610081578063747dff42146102cd5780637beeee0914610405578063893d20e81461044e578063a155e204146104bf578063bbe4fd501461051b578063f0141d8414610560576100b9565b80631986c811146100be57806325527ece1461010757806330a218121461014c578063332e64e71461020557806341c0e1b514610284575b600080fd5b3480156100ca57600080fd5b50d380156100d757600080fd5b50d280156100e457600080fd5b506100ed6105a5565b604051808215151515815260200191505060405180910390f35b34801561011357600080fd5b50d3801561012057600080fd5b50d2801561012d57600080fd5b50610136610b90565b6040518082815260200191505060405180910390f35b34801561015857600080fd5b50d3801561016557600080fd5b50d2801561017257600080fd5b506101b56004803603602081101561018957600080fd5b81019080803573ffffffffffffffffffffffffffffffffffffffff169060200190929190505050610d53565b604051808481526020018381526020018273ffffffffffffffffffffffffffffffffffffffff1673ffffffffffffffffffffffffffffffffffffffff168152602001935050505060405180910390f35b34801561021157600080fd5b50d3801561021e57600080fd5b50d2801561022b57600080fd5b5061026e6004803603602081101561024257600080fd5b81019080803573ffffffffffffffffffffffffffffffffffffffff169060200190929190505050610e58565b6040518082815260200191505060405180910390f35b34801561029057600080fd5b50d3801561029d57600080fd5b50d280156102aa57600080fd5b506102b3610ea1565b604051808215151515815260200191505060405180910390f35b3480156102d957600080fd5b50d380156102e657600080fd5b50d280156102f357600080fd5b506102fc6111f5565b604051808e8152602001806020018d81526020018c81526020018b81526020018a815260200189815260200188815260200187600181111561033a57fe5b60ff1681526020018681526020018581526020018473ffffffffffffffffffffffffffffffffffffffff1673ffffffffffffffffffffffffffffffffffffffff16815260200183815260200182810382528e818151815260200191508051906020019080838360005b838110156103be5780820151818401526020810190506103a3565b50505050905090810190601f1680156103eb5780820380516001836020036101000a031916815260200191505b509e50505050505050505050505050505060405180910390f35b34801561041157600080fd5b50d3801561041e57600080fd5b50d2801561042b57600080fd5b50610434611458565b604051808215151515815260200191505060405180910390f35b34801561045a57600080fd5b50d3801561046757600080fd5b50d2801561047457600080fd5b5061047d6117a4565b604051808273ffffffffffffffffffffffffffffffffffffffff1673ffffffffffffffffffffffffffffffffffffffff16815260200191505060405180910390f35b610501600480360360208110156104d557600080fd5b81019080803573ffffffffffffffffffffffffffffffffffffffff1690602001909291905050506117ce565b604051808215151515815260200191505060405180910390f35b34801561052757600080fd5b50d3801561053457600080fd5b50d2801561054157600080fd5b5061054a612a0d565b6040518082815260200191505060405180910390f35b34801561056c57600080fd5b50d3801561057957600080fd5b50d2801561058657600080fd5b5061058f612a15565b6040518082815260200191505060405180910390f35b6000600460009054906101000a900473ffffffffffffffffffffffffffffffffffffffff1673ffffffffffffffffffffffffffffffffffffffff163373ffffffffffffffffffffffffffffffffffffffff1614151561064f576040517f08c379a000000000000000000000000000000000000000000000000000000000815260040180806020018281038252602281526020018061313e6022913960400191505060405180910390fd5b3373ffffffffffffffffffffffffffffffffffffffff16600460009054906101000a900473ffffffffffffffffffffffffffffffffffffffff1673ffffffffffffffffffffffffffffffffffffffff16141515610714576040517f08c379a00000000000000000000000000000000000000000000000000000000081526004018080602001828103825260128152602001807f4d757374204f776e65722045786563757465000000000000000000000000000081525060200191505060405180910390fd5b6000429050610721612fbf565b60066101e0604051908101604052908160008201548152602001600182018054600181600116156101000203166002900480601f0160208091040260200160405190810160405280929190818152602001828054600181600116156101000203166002900480156107d35780601f106107a8576101008083540402835291602001916107d3565b820191906000526020600020905b8154815290600101906020018083116107b657829003601f168201915b505050505081526020016002820154815260200160038201548152602001600482015481526020016005820154815260200160068201548152602001600782015481526020016008820154815260200160098201548152602001600a820160009054906101000a900460ff16600181111561084a57fe5b600181111561085557fe5b8152602001600b8201548152602001600c8201548152602001600d820160009054906101000a900473ffffffffffffffffffffffffffffffffffffffff1673ffffffffffffffffffffffffffffffffffffffff1673ffffffffffffffffffffffffffffffffffffffff168152602001600e820154815250509050818160a00151111515610b8657600073ffffffffffffffffffffffffffffffffffffffff16816101a0015173ffffffffffffffffffffffffffffffffffffffff16141515610b8557806101a0015173ffffffffffffffffffffffffffffffffffffffff166108fc8261016001519081150290604051600060405180830381858888f19350505050158015610967573d6000803e3d6000fd5b5060004290506000819050600061098b846060015184612a1f90919063ffffffff16565b905060008460c001519050600085610100015190506000604690506000876000015190506101e060405190810160405280828152602001896020015181526020018881526020018960600151815260200187815260200186815260200185815260200185815260200184815260200184815260200160006001811115610a0d57fe5b81526020016000815260200160008152602001600460009054906101000a900473ffffffffffffffffffffffffffffffffffffffff1673ffffffffffffffffffffffffffffffffffffffff168152602001838152506006600082015181600001556020820151816001019080519060200190610a8a929190613057565b5060408201518160020155606082015181600301556080820151816004015560a0820151816005015560c0820151816006015560e082015181600701556101008201518160080155610120820151816009015561014082015181600a0160006101000a81548160ff02191690836001811115610b0257fe5b021790555061016082015181600b015561018082015181600c01556101a082015181600d0160006101000a81548173ffffffffffffffffffffffffffffffffffffffff021916908373ffffffffffffffffffffffffffffffffffffffff1602179055506101c082015181600e015590505060019950505050505050505050610b8d565b5b6000925050505b90565b6000610b9a612fbf565b60066101e0604051908101604052908160008201548152602001600182018054600181600116156101000203166002900480601f016020809104026020016040519081016040528092919081815260200182805460018160011615610100020316600290048015610c4c5780601f10610c2157610100808354040283529160200191610c4c565b820191906000526020600020905b815481529060010190602001808311610c2f57829003601f168201915b505050505081526020016002820154815260200160038201548152602001600482015481526020016005820154815260200160068201548152602001600782015481526020016008820154815260200160098201548152602001600a820160009054906101000a900460ff166001811115610cc357fe5b6001811115610cce57fe5b8152602001600b8201548152602001600c8201548152602001600d820160009054906101000a900473ffffffffffffffffffffffffffffffffffffffff1673ffffffffffffffffffffffffffffffffffffffff1673ffffffffffffffffffffffffffffffffffffffff168152602001600e8201548152505090508060e0015191505090565b6000806000610d606130d7565b601660008673ffffffffffffffffffffffffffffffffffffffff1673ffffffffffffffffffffffffffffffffffffffff1681526020019081526020016000206080604051908101604052908160008201548152602001600182015481526020016002820160009054906101000a900473ffffffffffffffffffffffffffffffffffffffff1673ffffffffffffffffffffffffffffffffffffffff1673ffffffffffffffffffffffffffffffffffffffff1681526020016002820160149054906101000a900460ff1615151515815250509050806020015193508060000151925080604001519150838383935093509350509193909250565b6000601760008373ffffffffffffffffffffffffffffffffffffffff1673ffffffffffffffffffffffffffffffffffffffff168152602001908152602001600020549050919050565b6000600460009054906101000a900473ffffffffffffffffffffffffffffffffffffffff1673ffffffffffffffffffffffffffffffffffffffff163373ffffffffffffffffffffffffffffffffffffffff16141515610f4b576040517f08c379a000000000000000000000000000000000000000000000000000000000815260040180806020018281038252602281526020018061313e6022913960400191505060405180910390fd5b3373ffffffffffffffffffffffffffffffffffffffff16600460009054906101000a900473ffffffffffffffffffffffffffffffffffffffff1673ffffffffffffffffffffffffffffffffffffffff1614156111ee57610fa9612fbf565b60066101e0604051908101604052908160008201548152602001600182018054600181600116156101000203166002900480601f01602080910402602001604051908101604052809291908181526020018280546001816001161561010002031660029004801561105b5780601f106110305761010080835404028352916020019161105b565b820191906000526020600020905b81548152906001019060200180831161103e57829003601f168201915b505050505081526020016002820154815260200160038201548152602001600482015481526020016005820154815260200160068201548152602001600782015481526020016008820154815260200160098201548152602001600a820160009054906101000a900460ff1660018111156110d257fe5b60018111156110dd57fe5b8152602001600b8201548152602001600c8201548152602001600d820160009054906101000a900473ffffffffffffffffffffffffffffffffffffffff1673ffffffffffffffffffffffffffffffffffffffff1673ffffffffffffffffffffffffffffffffffffffff168152602001600e820154815250509050600081610160015111156111ec57600460009054906101000a900473ffffffffffffffffffffffffffffffffffffffff1673ffffffffffffffffffffffffffffffffffffffff166108fc8261016001519081150290604051600060405180830381858888f193505050501580156111d2573d6000803e3d6000fd5b503373ffffffffffffffffffffffffffffffffffffffff16ff5b505b6000905090565b600060606000806000806000806000806000806000611212612fbf565b60066101e0604051908101604052908160008201548152602001600182018054600181600116156101000203166002900480601f0160208091040260200160405190810160405280929190818152602001828054600181600116156101000203166002900480156112c45780601f10611299576101008083540402835291602001916112c4565b820191906000526020600020905b8154815290600101906020018083116112a757829003601f168201915b505050505081526020016002820154815260200160038201548152602001600482015481526020016005820154815260200160068201548152602001600782015481526020016008820154815260200160098201548152602001600a820160009054906101000a900460ff16600181111561133b57fe5b600181111561134657fe5b8152602001600b8201548152602001600c8201548152602001600d820160009054906101000a900473ffffffffffffffffffffffffffffffffffffffff1673ffffffffffffffffffffffffffffffffffffffff1673ffffffffffffffffffffffffffffffffffffffff168152602001600e82015481525050905080600001519d5080602001519c5080604001519b5080606001519a50806080015199508060a0015198508060e0015197508061012001519650806101400151955080610160015194508061018001519350806101a001519250806101c0015191508d8d8d8d8d8d8d8d8d8d8d8d8d9d509d509d509d509d509d509d509d509d509d509d509d509d5050909192939495969798999a9b9c565b6000600460009054906101000a900473ffffffffffffffffffffffffffffffffffffffff1673ffffffffffffffffffffffffffffffffffffffff163373ffffffffffffffffffffffffffffffffffffffff16141515611502576040517f08c379a000000000000000000000000000000000000000000000000000000000815260040180806020018281038252602281526020018061313e6022913960400191505060405180910390fd5b3373ffffffffffffffffffffffffffffffffffffffff16600460009054906101000a900473ffffffffffffffffffffffffffffffffffffffff1673ffffffffffffffffffffffffffffffffffffffff161415156115c7576040517f08c379a00000000000000000000000000000000000000000000000000000000081526004018080602001828103825260128152602001807f4d757374204f776e65722045786563757465000000000000000000000000000081525060200191505060405180910390fd5b60004290506115d4612fbf565b60066101e0604051908101604052908160008201548152602001600182018054600181600116156101000203166002900480601f0160208091040260200160405190810160405280929190818152602001828054600181600116156101000203166002900480156116865780601f1061165b57610100808354040283529160200191611686565b820191906000526020600020905b81548152906001019060200180831161166957829003601f168201915b505050505081526020016002820154815260200160038201548152602001600482015481526020016005820154815260200160068201548152602001600782015481526020016008820154815260200160098201548152602001600a820160009054906101000a900460ff1660018111156116fd57fe5b600181111561170857fe5b8152602001600b8201548152602001600c8201548152602001600d820160009054906101000a900473ffffffffffffffffffffffffffffffffffffffff1673ffffffffffffffffffffffffffffffffffffffff1673ffffffffffffffffffffffffffffffffffffffff168152602001600e820154815250509050818160a0015111151561179a576001925050506117a1565b6000925050505b90565b6000600460009054906101000a900473ffffffffffffffffffffffffffffffffffffffff16905090565b6000804290506117dc612fbf565b60066101e0604051908101604052908160008201548152602001600182018054600181600116156101000203166002900480601f01602080910402602001604051908101604052809291908181526020018280546001816001161561010002031660029004801561188e5780601f106118635761010080835404028352916020019161188e565b820191906000526020600020905b81548152906001019060200180831161187157829003601f168201915b505050505081526020016002820154815260200160038201548152602001600482015481526020016005820154815260200160068201548152602001600782015481526020016008820154815260200160098201548152602001600a820160009054906101000a900460ff16600181111561190557fe5b600181111561191057fe5b8152602001600b8201548152602001600c8201548152602001600d820160009054906101000a900473ffffffffffffffffffffffffffffffffffffffff1673ffffffffffffffffffffffffffffffffffffffff1673ffffffffffffffffffffffffffffffffffffffff168152602001600e8201548152505090506000816000015114151515611a07576040517f08c379a000000000000000000000000000000000000000000000000000000000815260040180806020018281038252600e8152602001807f67616d65206e6f7420657869737400000000000000000000000000000000000081525060200191505060405180910390fd5b6000349050600033905060008360e001519050600084610180015190506000811415611a3257600190505b60006001811115611a3f57fe5b8561014001516001811115611a5057fe5b141515611ac5576040517f08c379a00000000000000000000000000000000000000000000000000000000081526004018080602001828103825260118152602001807f546869732047616d65204e6f7420496e6700000000000000000000000000000081525060200191505060405180910390fd5b838211151515611b3d576040517f08c379a00000000000000000000000000000000000000000000000000000000081526004018080602001828103825260208152602001807f546869732047616d6520427579205072696365206973206e6f74206c696d697481525060200191505060405180910390fd5b7fb6668bab6642a507a81c08f30893aaa47e0c29df8e88ad6b9c19ffd3a2296cf3838588604051808473ffffffffffffffffffffffffffffffffffffffff1673ffffffffffffffffffffffffffffffffffffffff16815260200183815260200182815260200180602001828103825260068152602001807fe8b4ade4b9b0000000000000000000000000000000000000000000000000000081525060200194505050505060405180910390a16000611c136064611c0560035488612aa990919063ffffffff16565b612b4590919063ffffffff16565b90506000611c3f6064611c3160005489612aa990919063ffffffff16565b612b4590919063ffffffff16565b90506000611c6b6064611c5d6005548a612aa990919063ffffffff16565b612b4590919063ffffffff16565b90506000600460009054906101000a900473ffffffffffffffffffffffffffffffffffffffff169050611c9c6130d7565b601660008973ffffffffffffffffffffffffffffffffffffffff1673ffffffffffffffffffffffffffffffffffffffff1681526020019081526020016000206080604051908101604052908160008201548152602001600182015481526020016002820160009054906101000a900473ffffffffffffffffffffffffffffffffffffffff1673ffffffffffffffffffffffffffffffffffffffff1673ffffffffffffffffffffffffffffffffffffffff1681526020016002820160149054906101000a900460ff16151515158152505090508c91508c816040019073ffffffffffffffffffffffffffffffffffffffff16908173ffffffffffffffffffffffffffffffffffffffff168152505080606001518015611deb5750600073ffffffffffffffffffffffffffffffffffffffff16816040015173ffffffffffffffffffffffffffffffffffffffff1614155b15611df857806040015191505b60008090505b601580549050811015611e9a576000601582815481101515611e1c57fe5b9060005260206000200160009054906101000a900473ffffffffffffffffffffffffffffffffffffffff169050601860008273ffffffffffffffffffffffffffffffffffffffff1673ffffffffffffffffffffffffffffffffffffffff16815260200190815260200160002060009055508080600101915050611dfe565b50600460009054906101000a900473ffffffffffffffffffffffffffffffffffffffff1673ffffffffffffffffffffffffffffffffffffffff166108fc859081150290604051600060405180830381858888f19350505050158015611f03573d6000803e3d6000fd5b507fc0d91c82e97814aa565f0d03c18f64ee424f76125f42d94ddfceff120b4f8995600460009054906101000a900473ffffffffffffffffffffffffffffffffffffffff1685604051808373ffffffffffffffffffffffffffffffffffffffff1673ffffffffffffffffffffffffffffffffffffffff16815260200182815260200180602001828103825260158152602001807fe58f91e694bee5b9b3e58fb0e6898be7bbade8b4b90000000000000000000000815250602001935050505060405180910390a18173ffffffffffffffffffffffffffffffffffffffff166108fc869081150290604051600060405180830381858888f19350505050158015612010573d6000803e3d6000fd5b507f4374886bfaca751b7f029933ffc2bad8439bbbb974547c4d1bf00d230c04ca068286604051808373ffffffffffffffffffffffffffffffffffffffff1673ffffffffffffffffffffffffffffffffffffffff16815260200182815260200180602001828103825260128152602001807fe58f91e694bee68ea8e88d90e5a596e58ab10000000000000000000000000000815250602001935050505060405180910390a1600080905060008090505b6015805490508110156122325760006015828154811015156120de57fe5b9060005260206000200160009054906101000a900473ffffffffffffffffffffffffffffffffffffffff1690506000601760008373ffffffffffffffffffffffffffffffffffffffff1673ffffffffffffffffffffffffffffffffffffffff16815260200190815260200160002054905060006121768b612168848b612aa990919063ffffffff16565b612b4590919063ffffffff16565b905061218b8186612a1f90919063ffffffff16565b94506121df81601860008673ffffffffffffffffffffffffffffffffffffffff1673ffffffffffffffffffffffffffffffffffffffff16815260200190815260200160002054612a1f90919063ffffffff16565b601860008573ffffffffffffffffffffffffffffffffffffffff1673ffffffffffffffffffffffffffffffffffffffff1681526020019081526020016000208190555050505080806001019150506120c0565b506000612248878c612bd890919063ffffffff16565b905061225d8682612bd890919063ffffffff16565b90506122728282612bd890919063ffffffff16565b905082606001511561238d57601660008b73ffffffffffffffffffffffffffffffffffffffff1673ffffffffffffffffffffffffffffffffffffffff1681526020019081526020016000206080604051908101604052908160008201548152602001600182015481526020016002820160009054906101000a900473ffffffffffffffffffffffffffffffffffffffff1673ffffffffffffffffffffffffffffffffffffffff1673ffffffffffffffffffffffffffffffffffffffff1681526020016002820160149054906101000a900460ff161515151581525050925083836040019073ffffffffffffffffffffffffffffffffffffffff16908173ffffffffffffffffffffffffffffffffffffffff1681525050612433565b60806040519081016040528060008152602001600081526020018573ffffffffffffffffffffffffffffffffffffffff16815260200160011515815250925060158a90806001815401808255809150509060018203906000526020600020016000909192909190916101000a81548173ffffffffffffffffffffffffffffffffffffffff021916908373ffffffffffffffffffffffffffffffffffffffff160217905550505b61244a8b8460200151612a1f90919063ffffffff16565b83602001818152505082601660008c73ffffffffffffffffffffffffffffffffffffffff1673ffffffffffffffffffffffffffffffffffffffff168152602001908152602001600020600082015181600001556020820151816001015560408201518160020160006101000a81548173ffffffffffffffffffffffffffffffffffffffff021916908373ffffffffffffffffffffffffffffffffffffffff16021790555060608201518160020160146101000a81548160ff02191690831515021790555090505060008090505b6015805490508110156128b257600060158281548110151561253557fe5b9060005260206000200160009054906101000a900473ffffffffffffffffffffffffffffffffffffffff1690506000601860008373ffffffffffffffffffffffffffffffffffffffff1673ffffffffffffffffffffffffffffffffffffffff16815260200190815260200160002054905060008111156128a3576125b76130d7565b601660008473ffffffffffffffffffffffffffffffffffffffff1673ffffffffffffffffffffffffffffffffffffffff1681526020019081526020016000206080604051908101604052908160008201548152602001600182015481526020016002820160009054906101000a900473ffffffffffffffffffffffffffffffffffffffff1673ffffffffffffffffffffffffffffffffffffffff1673ffffffffffffffffffffffffffffffffffffffff1681526020016002820160149054906101000a900460ff16151515158152505090508060600151156126b8576126aa828260000151612a1f90919063ffffffff16565b8160000181815250506126f8565b60806040519081016040528083815260200160008152602001600073ffffffffffffffffffffffffffffffffffffffff1681526020016001151581525090505b80601660008573ffffffffffffffffffffffffffffffffffffffff1673ffffffffffffffffffffffffffffffffffffffff168152602001908152602001600020600082015181600001556020820151816001015560408201518160020160006101000a81548173ffffffffffffffffffffffffffffffffffffffff021916908373ffffffffffffffffffffffffffffffffffffffff16021790555060608201518160020160146101000a81548160ff0219169083151502179055509050508273ffffffffffffffffffffffffffffffffffffffff166108fc839081150290604051600060405180830381858888f193505050501580156127fc573d6000803e3d6000fd5b507fde3810754a10190424b293c24463eeaa95fa7548782a204075a6acb2170e40e48383604051808373ffffffffffffffffffffffffffffffffffffffff1673ffffffffffffffffffffffffffffffffffffffff16815260200182815260200180602001828103825260128152602001807fe58f91e98081e58886e7baa2e5a596e58ab10000000000000000000000000000815250602001935050505060405180910390a1505b50508080600101915050612517565b5060008090505b6015805490508110156129555760006015828154811015156128d757fe5b9060005260206000200160009054906101000a900473ffffffffffffffffffffffffffffffffffffffff169050601860008273ffffffffffffffffffffffffffffffffffffffff1673ffffffffffffffffffffffffffffffffffffffff168152602001908152602001600020600090555080806001019150506128b9565b506129a96001601760008d73ffffffffffffffffffffffffffffffffffffffff1673ffffffffffffffffffffffffffffffffffffffff16815260200190815260200160002054612a1f90919063ffffffff16565b601760008c73ffffffffffffffffffffffffffffffffffffffff1673ffffffffffffffffffffffffffffffffffffffff168152602001908152602001600020819055506129f68a82612c63565b5060019d5050505050505050505050505050919050565b600042905090565b6000600154905090565b6000808284019050838110151515612a9f576040517f08c379a000000000000000000000000000000000000000000000000000000000815260040180806020018281038252601b8152602001807f536166654d6174683a206164646974696f6e206f766572666c6f77000000000081525060200191505060405180910390fd5b8091505092915050565b600080831415612abc5760009050612b3f565b6000821415612ace5760009050612b3f565b60008284029050828482811515612ae157fe5b04141515612b3a576040517f08c379a00000000000000000000000000000000000000000000000000000000081526004018080602001828103825260218152602001806131606021913960400191505060405180910390fd5b809150505b92915050565b60008082111515612bbe576040517f08c379a000000000000000000000000000000000000000000000000000000000815260040180806020018281038252601a8152602001807f536166654d6174683a206469766973696f6e206279207a65726f00000000000081525060200191505060405180910390fd5b60008284811515612bcb57fe5b0490508091505092915050565b6000828211151515612c52576040517f08c379a000000000000000000000000000000000000000000000000000000000815260040180806020018281038252601e8152602001807f536166654d6174683a207375627472616374696f6e206f766572666c6f77000081525060200191505060405180910390fd5b600082840390508091505092915050565b600080429050612c71612fbf565b60066101e0604051908101604052908160008201548152602001600182018054600181600116156101000203166002900480601f016020809104026020016040519081016040528092919081815260200182805460018160011615610100020316600290048015612d235780601f10612cf857610100808354040283529160200191612d23565b820191906000526020600020905b815481529060010190602001808311612d0657829003601f168201915b505050505081526020016002820154815260200160038201548152602001600482015481526020016005820154815260200160068201548152602001600782015481526020016008820154815260200160098201548152602001600a820160009054906101000a900460ff166001811115612d9a57fe5b6001811115612da557fe5b8152602001600b8201548152602001600c8201548152602001600d820160009054906101000a900473ffffffffffffffffffffffffffffffffffffffff1673ffffffffffffffffffffffffffffffffffffffff1673ffffffffffffffffffffffffffffffffffffffff168152602001600e820154815250509050846006600d0160006101000a81548173ffffffffffffffffffffffffffffffffffffffff021916908373ffffffffffffffffffffffffffffffffffffffff160217905550612e7b84826101600151612a1f90919063ffffffff16565b6006600b01819055506000612e9f6001836101800151612a1f90919063ffffffff16565b9050806006600c018190555082600660040181905550612ecc826060015184612a1f90919063ffffffff16565b600660050181905550816101c00151811415612f48576000612efd6002846101200151612b4590919063ffffffff16565b90508083610120018181525050612f236002846101c00151612aa990919063ffffffff16565b836101c001818152505080600660090181905550826101c001516006600e0181905550505b6000612f7a6064612f6c600254600a0a866101200151612b4590919063ffffffff16565b612a1f90919063ffffffff16565b905060008360e001519050612fab6064612f9d8484612aa990919063ffffffff16565b612b4590919063ffffffff16565b600660070181905550505050505092915050565b6101e060405190810160405280600081526020016060815260200160008152602001600081526020016000815260200160008152602001600081526020016000815260200160008152602001600081526020016000600181111561301f57fe5b81526020016000815260200160008152602001600073ffffffffffffffffffffffffffffffffffffffff168152602001600081525090565b828054600181600116156101000203166002900490600052602060002090601f016020900481019282601f1061309857805160ff19168380011785556130c6565b828001600101855582156130c6579182015b828111156130c55782518255916020019190600101906130aa565b5b5090506130d39190613118565b5090565b6080604051908101604052806000815260200160008152602001600073ffffffffffffffffffffffffffffffffffffffff1681526020016000151581525090565b61313a91905b8082111561313657600081600090555060010161311e565b5090565b9056fe4f6e6c79206f776e65722063616e2063616c6c20746869732066756e6374696f6e2e536166654d6174683a206d756c7469706c69636174696f6e206f766572666c6f77a165627a7a72305820a1b4139076ab99313ede2925dda8f964a4bbcba2a3c993c6165538bff69d47b80029",
  "source": "pragma solidity ^0.5.4;\r\n\r\nimport \"./SafeMath.sol\";\r\nimport \"./Entitys.sol\";\r\n/***\r\n    \r\n */\r\ncontract SingleTokenGame{\r\n\r\n    modifier onlyOwner {\r\n    require(\r\n        msg.sender == _owner,\r\n        \"Only owner can call this function.\"\r\n    );\r\n    _;\r\n    }\r\n\r\n    using SafeMath for uint256;\r\n    \r\n\r\n    /** */\r\n    uint256 private _fee_rate=10;\r\n\r\n    /** */\r\n    //assert(1 wei == 1);\r\n    //assert(1 szabo == 1e12);\r\n    //assert(1 finney == 1e15);\r\n    //assert(1 ether == 1e18);\r\n    uint256 private _decimals=6;\r\n    uint256 private _price_upper_decimals=18;\r\n\r\n     /** */\r\n    uint256 private _recommend_rate=10;\r\n    address private _owner;\r\n\r\n    /** */\r\n    uint256 private _bonus_rate=30;\r\n    /**\r\n        \r\n     */\r\n    Entitys.GameStruct private  current_game;\r\n\r\n    //\r\n    address[] private   game_buy_users;\r\n\r\n\r\n    /***\r\n    ->->\r\n    */\r\n    mapping(address=>Entitys.UserBenefitAndInvestment) private game_investment_benefit;\r\n    /**\r\n    ->->\r\n     */\r\n    mapping(address=>uint)  private   game_user_buy_count;\r\n\r\n\r\n    //\r\n    mapping(address=>uint256) private  user_credit_log;\r\n\r\n    constructor (uint _game_id,string memory _name,uint _game_times,uint _price,uint _price_upper_rate) public \r\n    {\r\n        _owner=msg.sender;\r\n        uint temp_now=now;\r\n        uint _last_buy_time=temp_now;\r\n        uint _over_time=temp_now.add(_game_times);\r\n        uint _buy_price=_price*(10**uint(_decimals));//1^6\r\n        uint256 price_upper_rate=_price_upper_rate*(10**_price_upper_decimals);//1^18\r\n        uint next_change_rate_count=70;\r\n        current_game = Entitys.GameStruct(_game_id,_name,temp_now,_game_times,_last_buy_time,_over_time,_buy_price,_buy_price,price_upper_rate,price_upper_rate,Entitys.GameStatus.Ing,0,0,_owner,next_change_rate_count);\r\n\r\n    }\r\n    /**\r\n        \r\n        \r\n    */\r\n    function getNow() public view returns (uint nowvalue)  \r\n    {\r\n        return now;\r\n    }\r\n     /***\r\n     *  \r\n     * */\r\n    function getDecimals()  public view  returns(uint256)\r\n    {\r\n        return _decimals;\r\n    }\r\n    \r\n     /***\r\n     *  \r\n     * */\r\n    function getOwner()  public view  returns(address)\r\n    {\r\n        return _owner;\r\n    }\r\n    \r\n\r\n    /**\r\n    * \r\n     */\r\n    function getCurrentRoundInfo() public view returns (uint game_id,string memory name,uint begin_time,uint game_times,uint last_buy_time,uint over_time,uint256 price\r\n    ,uint price_upper_rate,Entitys.GameStatus status,uint256 prize_value,uint buy_count\r\n    ,address last_buy_user_address,uint next_change_rate_count)\r\n    {\r\n         Entitys.GameStruct memory game=current_game;\r\n         game_id=game.game_id;\r\n         name=game.name;\r\n         begin_time=game.begin_time;\r\n         game_times=game.game_times;\r\n         last_buy_time=game.last_buy_time;\r\n         over_time=game.over_time;\r\n         price=game.price;\r\n         price_upper_rate=game.price_upper_rate;\r\n         status=game.status;\r\n         prize_value=game.prize_value;\r\n         buy_count=game.buy_count;\r\n         last_buy_user_address=game.last_buy_user_address;\r\n         next_change_rate_count=game.next_change_rate_count;\r\n         return ( game_id,  name, begin_time, game_times, last_buy_time, over_time, price, price_upper_rate,status,prize_value,buy_count,last_buy_user_address,next_change_rate_count);\r\n    }\r\n\r\n\r\n\r\n\r\n    function askprice() public view returns (uint256 price) {\r\n        Entitys.GameStruct memory game=current_game;\r\n        return game.price;\r\n    }\r\n\r\n    //\r\n    event SendRecommend(address bidder, uint256 amount,string event_msg);\r\n    //\r\n    event SendPlatformFee(address bidder, uint256 amount,string event_msg);\r\n    //\r\n    event CalcBonus(address bidder, uint256 amount,string event_msg);\r\n    \r\n    //\r\n    event TransferAmount(address bidder, uint256 amount,string event_msg);\r\n\r\n    //\r\n    event BuyGameEvent(address bidder, uint256 amount,uint256 buy_time,string event_msg);\r\n    /**\r\n    *@recommend_user \r\n    * token\r\n    *1TRX           =\"TJBHq5um63GPdmmjhmSppuep69bygK7cJE====1000000\"\r\n    *0.1TRX         =\"TJBHq5um63GPdmmjhmSppuep69bygK7cJE====100000\"\r\n    *0.000001TRX    =\"TJBHq5um63GPdmmjhmSppuep69bygK7cJE====1\"\r\n    */\r\n    function buy_token(address recommend_user) public payable returns (bool success){\r\n     \r\n        // grab time\r\n        uint256 _now = now;\r\n        Entitys.GameStruct memory game=current_game;\r\n        require(game.game_id!=uint(0), \"game not exist\");\r\n        //1 TRX           =\"TJBHq5um63GPdmmjhmSppuep69bygK7cJE====1000000\"\r\n        //0.1 TRX         =\"TJBHq5um63GPdmmjhmSppuep69bygK7cJE====100000\"\r\n        //0.000001 TRX    =\"TJBHq5um63GPdmmjhmSppuep69bygK7cJE====1\"\r\n        uint256 amount=msg.value;//\r\n        address buyer=msg.sender;//\r\n        uint256 current_price=game.price;//\r\n        uint current_buy_count=game.buy_count;//\r\n        if(current_buy_count==uint(0))\r\n        {\r\n            current_buy_count=1;\r\n        }\r\n        require(game.status == Entitys.GameStatus.Ing,\"This Game Not Ing\");\r\n        //\r\n        require(current_price  <= amount ,\"This Game Buy Price is not limit\");\r\n        emit BuyGameEvent(buyer,amount,_now,\"\");\r\n        //\r\n        uint256 recommend_value=amount.mul(_recommend_rate).div(100) ;\r\n\r\n        //\r\n        uint256 platform_value=amount.mul(_fee_rate).div(100) ;\r\n        //\r\n        uint256 bonus_value=amount.mul(_bonus_rate).div(100) ;\r\n        //\r\n        address temp_recommend_user=_owner;//\r\n        //--/\r\n        Entitys.UserBenefitAndInvestment memory bi =game_investment_benefit[buyer]; \r\n      \r\n        temp_recommend_user=recommend_user;//\r\n        bi.recommend_user_address=recommend_user;//\r\n        \r\n        if(bi.isValue&&bi.recommend_user_address!=address(0))\r\n        {\r\n            temp_recommend_user=bi.recommend_user_address;\r\n        }\r\n    \r\n        for(uint i = 0; i < game_buy_users.length; i++) {\r\n            address temp_user=game_buy_users[i];\r\n            delete user_credit_log[temp_user];\r\n        }\r\n        address(uint160(_owner)).transfer(platform_value);//\r\n        emit SendPlatformFee(_owner,platform_value,\"\");\r\n        address(uint160(temp_recommend_user)).transfer(recommend_value);//\r\n        emit SendRecommend(temp_recommend_user,recommend_value,\"\");\r\n        uint256 used_bonus_value=uint256(0);\r\n        // \r\n        for(uint i = 0; i < game_buy_users.length; i++) {\r\n            address temp_user=game_buy_users[i];\r\n            uint user_buy_count=game_user_buy_count[temp_user];\r\n            //=*/\r\n            uint256 temp_bonus_value=bonus_value.mul(user_buy_count).div(current_buy_count);\r\n            //emit CalcBonus(temp_user,temp_bonus_value,\"\");\r\n            used_bonus_value=used_bonus_value.add(temp_bonus_value);\r\n            user_credit_log[temp_user]=user_credit_log[temp_user].add(temp_bonus_value);\r\n        }\r\n        //\r\n        //=---\r\n        uint256 temp_prize_value=amount.sub(recommend_value);\r\n        temp_prize_value= temp_prize_value.sub(platform_value);\r\n        temp_prize_value=temp_prize_value.sub(used_bonus_value);\r\n\r\n        if(bi.isValue)\r\n        {\r\n            bi =game_investment_benefit[buyer];\r\n            bi.recommend_user_address=temp_recommend_user;\r\n        }else{\r\n            //-\r\n            bi = Entitys.UserBenefitAndInvestment(0,0,temp_recommend_user,true);\r\n            //\r\n            game_buy_users.push(buyer);\r\n        }\r\n        bi.touru=bi.touru.add(amount);\r\n        //\r\n        game_investment_benefit[buyer]=bi;\r\n        for(uint i = 0; i < game_buy_users.length; i++) {\r\n            address temp_user=game_buy_users[i];\r\n            uint256 t_amount=user_credit_log[temp_user];//\r\n            //RTX To User\r\n            if(t_amount>0)\r\n            {\r\n                //\r\n                Entitys.UserBenefitAndInvestment memory temp_bi =game_investment_benefit[temp_user];\r\n                if(temp_bi.isValue)\r\n                {\r\n                    temp_bi.shouyi=temp_bi.shouyi.add(t_amount);\r\n                }\r\n                else{\r\n                    //-\r\n                    temp_bi = Entitys.UserBenefitAndInvestment(t_amount,0,address(0),true);\r\n                }\r\n                game_investment_benefit[temp_user]=temp_bi;\r\n                address(uint160(temp_user)).transfer(t_amount);\r\n                emit TransferAmount(temp_user,t_amount,\"\");\r\n            }\r\n        }\r\n        for(uint i = 0; i < game_buy_users.length; i++) {\r\n            address temp_user=game_buy_users[i];\r\n            delete user_credit_log[temp_user];\r\n        }\r\n        //+1\r\n        game_user_buy_count[buyer]=game_user_buy_count[buyer].add(1);//+1\r\n        //\r\n        calcGameRate(buyer,temp_prize_value);\r\n        return true;\r\n    }\r\n    /**\r\n    \r\n     */\r\n    function calcGameRate(address buyer,uint256 prize_value) private returns(bool)\r\n    {\r\n\r\n         // grab time\r\n        uint256 _now = now;\r\n        Entitys.GameStruct memory game=current_game;\r\n        //\r\n        current_game.last_buy_user_address=buyer;\r\n        //\r\n        current_game.prize_value=game.prize_value.add(prize_value);//=+\r\n        \r\n        //\r\n        uint current_buy_count=game.buy_count.add(1);\r\n        current_game.buy_count=current_buy_count;//+1\r\n        //\r\n        current_game.last_buy_time=_now;//\r\n        //\r\n        current_game.over_time=_now.add(game.game_times);//\r\n        //70-140-280-540-1080-2196-->\r\n        if(current_buy_count==game.next_change_rate_count)\r\n        {\r\n          uint256 temp_price_rate=game.price_upper_rate.div(2);//\r\n          game.price_upper_rate=temp_price_rate;\r\n          //\r\n          game.next_change_rate_count=game.next_change_rate_count.mul(2);\r\n          current_game.price_upper_rate=temp_price_rate;\r\n          //\r\n          current_game.next_change_rate_count=game.next_change_rate_count;\r\n        }\r\n        //\r\n        uint256 _price_upper_rate=game.price_upper_rate.div(10**_price_upper_decimals).add(100);\r\n        uint256 current_price=game.price;//\r\n        //=*115/100\r\n        current_game.price=current_price.mul(_price_upper_rate).div(100);\r\n    }\r\n    /***\r\n     *  \r\n     * */\r\n    function getBuyerBuyCount(address buyer) public view returns(uint)\r\n    {\r\n        return game_user_buy_count[buyer];\r\n    }\r\n\r\n    /**\r\n     \r\n     */\r\n    function getBuerIncomeInvestment(address buyer)  public view returns (uint256 income,uint256 investment,address recommend_user_address)\r\n    {\r\n      Entitys.UserBenefitAndInvestment memory bi =game_investment_benefit[buyer]; \r\n      income=bi.touru;\r\n      investment=bi.shouyi;\r\n      recommend_user_address=bi.recommend_user_address;\r\n      return (income,investment,recommend_user_address);\r\n    }\r\n\r\n     function checkGameAndPrize()  public view onlyOwner returns (bool)\r\n     {\r\n        require(_owner ==msg.sender,\"Must Owner Execute\");\r\n        uint256 _now = now;\r\n        Entitys.GameStruct memory game=current_game;\r\n        if(game.over_time<=_now)\r\n        {\r\n            return true;\r\n        }\r\n        return false;\r\n     }\r\n    function PrizeGame()  public onlyOwner returns (bool)\r\n    {\r\n        require(_owner ==msg.sender,\"Must Owner Execute\");\r\n         // grab time\r\n        uint256 _now = now;\r\n        Entitys.GameStruct memory game=current_game;\r\n        if(game.over_time<=_now)\r\n        {\r\n            //\r\n            if(game.last_buy_user_address!=address(0))\r\n            {\r\n                //\r\n                address(uint160(game.last_buy_user_address)).transfer(game.prize_value);//\r\n                uint temp_now=now;\r\n                uint _last_buy_time=temp_now;\r\n                uint _over_time=temp_now.add(game.game_times);\r\n                uint _buy_price=game.base_prce;//1^6\r\n                uint256 price_upper_rate=game.base_price_upper_rate;//1^18\r\n                uint next_change_rate_count=70;\r\n                uint game_id=game.game_id;\r\n                current_game = Entitys.GameStruct(game_id,game.name,temp_now,game.game_times,_last_buy_time,_over_time,_buy_price,_buy_price,price_upper_rate,price_upper_rate,Entitys.GameStatus.Ing,0,0,_owner,next_change_rate_count);\r\n                return true;\r\n            }\r\n            \r\n        }\r\n\r\n        return false;\r\n    } \r\n\r\n     function kill() public onlyOwner returns(bool){\r\n       if (_owner == msg.sender) {\r\n            // \r\n          Entitys.GameStruct memory game=current_game;\r\n          if(game.prize_value>0)\r\n          {\r\n            address(uint160(_owner)).transfer(game.prize_value);\r\n            selfdestruct(msg.sender);\r\n            return true;\r\n          }\r\n       }\r\n       return false;\r\n    }\r\n\r\n}\r\n\r\n/*\r\nfunction FormatDateTime(UnixTime) { \r\n            var a = UnixTime.replace(\"/Date(\", \"\").replace(\")/\", \"\");\r\n            var date = new Date(parseInt(a));\r\n            var y = date.getFullYear();\r\n            var m = date.getMonth() + 1;\r\n            m = m < 10 ? ('0' + m) : m;\r\n            var d = date.getDate();\r\n            d = d < 10 ? ('0' + d) : d;\r\n            var h = date.getHours();\r\n            h = h < 10 ? ('0' + h) : h;\r\n            var minute = date.getMinutes();\r\n            var second = date.getSeconds();\r\n            minute = minute < 10 ? ('0' + minute) : minute;\r\n            second = second < 10 ? ('0' + second) : second; \r\n     \t\tlet time = y + '-' + m + '-' + d + ' ' + h + ':' + minute + ':' + second;\r\n     \t\tconsole.log(time)       \r\n     \t\treturn time\r\n        }\r\nundefined\r\nvar abc=FormatDateTime(1620467244)*/",
  "sourcePath": "F:/OtherProducts/tron/maxisacoder-tron-dapp-demo/contracts/SingleTokenGame.sol",
  "compiler": {
    "name": "solc",
    "version": "0.5.4+commit.d15a3125.mod.Emscripten.clang"
  },
  "schemaVersion": "2.0.1",
  "updatedAt": "2021-05-17T10:01:47.869Z"
}