{
  "contractName": "SingleTokenGame",
  "abi": [
    {
      "inputs": [
        {
          "name": "_game_id",
          "type": "uint256"
        },
        {
          "name": "_name",
          "type": "string"
        },
        {
          "name": "_game_times",
          "type": "uint256"
        },
        {
          "name": "_price",
          "type": "uint256"
        },
        {
          "name": "_price_upper_rate",
          "type": "uint256"
        }
      ],
      "payable": false,
      "stateMutability": "nonpayable",
      "type": "constructor"
    },
    {
      "anonymous": false,
      "inputs": [
        {
          "indexed": false,
          "name": "bidder",
          "type": "address"
        },
        {
          "indexed": false,
          "name": "amount",
          "type": "uint256"
        },
        {
          "indexed": false,
          "name": "event_msg",
          "type": "string"
        }
      ],
      "name": "SendRecommend",
      "type": "event"
    },
    {
      "anonymous": false,
      "inputs": [
        {
          "indexed": false,
          "name": "bidder",
          "type": "address"
        },
        {
          "indexed": false,
          "name": "amount",
          "type": "uint256"
        },
        {
          "indexed": false,
          "name": "event_msg",
          "type": "string"
        }
      ],
      "name": "SendPlatformFee",
      "type": "event"
    },
    {
      "anonymous": false,
      "inputs": [
        {
          "indexed": false,
          "name": "bidder",
          "type": "address"
        },
        {
          "indexed": false,
          "name": "amount",
          "type": "uint256"
        },
        {
          "indexed": false,
          "name": "event_msg",
          "type": "string"
        }
      ],
      "name": "CalcBonus",
      "type": "event"
    },
    {
      "anonymous": false,
      "inputs": [
        {
          "indexed": false,
          "name": "bidder",
          "type": "address"
        },
        {
          "indexed": false,
          "name": "amount",
          "type": "uint256"
        },
        {
          "indexed": false,
          "name": "event_msg",
          "type": "string"
        }
      ],
      "name": "TransferAmount",
      "type": "event"
    },
    {
      "anonymous": false,
      "inputs": [
        {
          "indexed": false,
          "name": "bidder",
          "type": "address"
        },
        {
          "indexed": false,
          "name": "amount",
          "type": "uint256"
        },
        {
          "indexed": false,
          "name": "buy_time",
          "type": "uint256"
        },
        {
          "indexed": false,
          "name": "event_msg",
          "type": "string"
        }
      ],
      "name": "BuyGameEvent",
      "type": "event"
    },
    {
      "constant": true,
      "inputs": [],
      "name": "getNow",
      "outputs": [
        {
          "name": "nowvalue",
          "type": "uint256"
        }
      ],
      "payable": false,
      "stateMutability": "view",
      "type": "function"
    },
    {
      "constant": true,
      "inputs": [],
      "name": "getDecimals",
      "outputs": [
        {
          "name": "",
          "type": "uint256"
        }
      ],
      "payable": false,
      "stateMutability": "view",
      "type": "function"
    },
    {
      "constant": true,
      "inputs": [],
      "name": "getOwner",
      "outputs": [
        {
          "name": "",
          "type": "address"
        }
      ],
      "payable": false,
      "stateMutability": "view",
      "type": "function"
    },
    {
      "constant": true,
      "inputs": [],
      "name": "getCurrentRoundInfo",
      "outputs": [
        {
          "name": "game_id",
          "type": "uint256"
        },
        {
          "name": "name",
          "type": "string"
        },
        {
          "name": "begin_time",
          "type": "uint256"
        },
        {
          "name": "game_times",
          "type": "uint256"
        },
        {
          "name": "last_buy_time",
          "type": "uint256"
        },
        {
          "name": "over_time",
          "type": "uint256"
        },
        {
          "name": "price",
          "type": "uint256"
        },
        {
          "name": "price_upper_rate",
          "type": "uint256"
        },
        {
          "name": "status",
          "type": "uint8"
        },
        {
          "name": "prize_value",
          "type": "uint256"
        },
        {
          "name": "buy_count",
          "type": "uint256"
        },
        {
          "name": "last_buy_user_address",
          "type": "address"
        }
      ],
      "payable": false,
      "stateMutability": "view",
      "type": "function"
    },
    {
      "constant": true,
      "inputs": [],
      "name": "askprice",
      "outputs": [
        {
          "name": "price",
          "type": "uint256"
        }
      ],
      "payable": false,
      "stateMutability": "view",
      "type": "function"
    },
    {
      "constant": false,
      "inputs": [
        {
          "name": "recommend_user",
          "type": "address"
        }
      ],
      "name": "buy_token",
      "outputs": [
        {
          "name": "",
          "type": "bool"
        }
      ],
      "payable": true,
      "stateMutability": "payable",
      "type": "function"
    }
  ],
  "bytecode": "0x6080604052600a6000556006600160006101000a81548160ff021916908360ff160217905550600a600255601e6004553480156200003c57600080fd5b50d380156200004a57600080fd5b50d280156200005857600080fd5b506040516200221738038062002217833981018060405260a08110156200007e57600080fd5b81019080805190602001909291908051640100000000811115620000a157600080fd5b82810190506020810184811115620000b857600080fd5b8151856001820283011164010000000082111715620000d657600080fd5b505092919060200180519060200190929190805190602001909291908051906020019092919050505033600360006101000a81548173ffffffffffffffffffffffffffffffffffffffff021916908373ffffffffffffffffffffffffffffffffffffffff1602179055506000429050600081905060006200016f8684620003086401000000000262001b9f179091906401000000009004565b90506000600160009054906101000a900460ff1660ff16600a0a86029050610180604051908101604052808a815260200189815260200185815260200188815260200184815260200183815260200182815260200186815260200160006001811115620001d857fe5b81526020016000815260200160008152602001600073ffffffffffffffffffffffffffffffffffffffff1681525060056000820151816000015560208201518160010190805190602001906200023092919062000393565b5060408201518160020155606082015181600301556080820151816004015560a0820151816005015560c0820151816006015560e082015181600701556101008201518160080160006101000a81548160ff021916908360018111156200029357fe5b0217905550610120820151816009015561014082015181600a015561016082015181600b0160006101000a81548173ffffffffffffffffffffffffffffffffffffffff021916908373ffffffffffffffffffffffffffffffffffffffff16021790555090505050505050505050505062000442565b600080828401905083811015151562000389576040517f08c379a000000000000000000000000000000000000000000000000000000000815260040180806020018281038252601b8152602001807f536166654d6174683a206164646974696f6e206f766572666c6f77000000000081525060200191505060405180910390fd5b8091505092915050565b828054600181600116156101000203166002900490600052602060002090601f016020900481019282601f10620003d657805160ff191683800117855562000407565b8280016001018555821562000407579182015b8281111562000406578251825591602001919060010190620003e9565b5b5090506200041691906200041a565b5090565b6200043f91905b808211156200043b57600081600090555060010162000421565b5090565b90565b611dc580620004526000396000f3fe608060405260043610610072576000357c01000000000000000000000000000000000000000000000000000000009004806325527ece14610077578063747dff42146100bc578063893d20e8146101ed578063a155e2041461025e578063bbe4fd50146102ba578063f0141d84146102ff575b600080fd5b34801561008357600080fd5b50d3801561009057600080fd5b50d2801561009d57600080fd5b506100a6610344565b6040518082815260200191505060405180910390f35b3480156100c857600080fd5b50d380156100d557600080fd5b50d280156100e257600080fd5b506100eb6104e9565b604051808d8152602001806020018c81526020018b81526020018a815260200189815260200188815260200187815260200186600181111561012957fe5b60ff1681526020018581526020018481526020018373ffffffffffffffffffffffffffffffffffffffff1673ffffffffffffffffffffffffffffffffffffffff16815260200182810382528d818151815260200191508051906020019080838360005b838110156101a757808201518184015260208101905061018c565b50505050905090810190601f1680156101d45780820380516001836020036101000a031916815260200191505b509d505050505050505050505050505060405180910390f35b3480156101f957600080fd5b50d3801561020657600080fd5b50d2801561021357600080fd5b5061021c61071f565b604051808273ffffffffffffffffffffffffffffffffffffffff1673ffffffffffffffffffffffffffffffffffffffff16815260200191505060405180910390f35b6102a06004803603602081101561027457600080fd5b81019080803573ffffffffffffffffffffffffffffffffffffffff169060200190929190505050610749565b604051808215151515815260200191505060405180910390f35b3480156102c657600080fd5b50d380156102d357600080fd5b50d280156102e057600080fd5b506102e9611a4e565b6040518082815260200191505060405180910390f35b34801561030b57600080fd5b50d3801561031857600080fd5b50d2801561032557600080fd5b5061032e611a56565b6040518082815260200191505060405180910390f35b600061034e611cb4565b6005610180604051908101604052908160008201548152602001600182018054600181600116156101000203166002900480601f0160208091040260200160405190810160405280929190818152602001828054600181600116156101000203166002900480156104005780601f106103d557610100808354040283529160200191610400565b820191906000526020600020905b8154815290600101906020018083116103e357829003601f168201915b505050505081526020016002820154815260200160038201548152602001600482015481526020016005820154815260200160068201548152602001600782015481526020016008820160009054906101000a900460ff16600181111561046357fe5b600181111561046e57fe5b815260200160098201548152602001600a8201548152602001600b820160009054906101000a900473ffffffffffffffffffffffffffffffffffffffff1673ffffffffffffffffffffffffffffffffffffffff1673ffffffffffffffffffffffffffffffffffffffff168152505090508060c0015191505090565b60006060600080600080600080600080600080610504611cb4565b6005610180604051908101604052908160008201548152602001600182018054600181600116156101000203166002900480601f0160208091040260200160405190810160405280929190818152602001828054600181600116156101000203166002900480156105b65780601f1061058b576101008083540402835291602001916105b6565b820191906000526020600020905b81548152906001019060200180831161059957829003601f168201915b505050505081526020016002820154815260200160038201548152602001600482015481526020016005820154815260200160068201548152602001600782015481526020016008820160009054906101000a900460ff16600181111561061957fe5b600181111561062457fe5b815260200160098201548152602001600a8201548152602001600b820160009054906101000a900473ffffffffffffffffffffffffffffffffffffffff1673ffffffffffffffffffffffffffffffffffffffff1673ffffffffffffffffffffffffffffffffffffffff1681525050905080600001519c5080602001519b5080604001519a5080606001519950806080015198508060a0015197508060c0015196508060e00151955080610100015194508061012001519350806101400151925080610160015191508c8c8c8c8c8c8c8c8c8c8c8c9c509c509c509c509c509c509c509c509c509c509c509c5050909192939495969798999a9b565b6000600360009054906101000a900473ffffffffffffffffffffffffffffffffffffffff16905090565b600080429050610757611cb4565b6005610180604051908101604052908160008201548152602001600182018054600181600116156101000203166002900480601f0160208091040260200160405190810160405280929190818152602001828054600181600116156101000203166002900480156108095780601f106107de57610100808354040283529160200191610809565b820191906000526020600020905b8154815290600101906020018083116107ec57829003601f168201915b505050505081526020016002820154815260200160038201548152602001600482015481526020016005820154815260200160068201548152602001600782015481526020016008820160009054906101000a900460ff16600181111561086c57fe5b600181111561087757fe5b815260200160098201548152602001600a8201548152602001600b820160009054906101000a900473ffffffffffffffffffffffffffffffffffffffff1673ffffffffffffffffffffffffffffffffffffffff1673ffffffffffffffffffffffffffffffffffffffff168152505090506000816000015114151515610964576040517f08c379a000000000000000000000000000000000000000000000000000000000815260040180806020018281038252600e8152602001807f67616d65206e6f7420657869737400000000000000000000000000000000000081525060200191505060405180910390fd5b6000349050600033905060008360c00151905060008461014001519050600081141561098f57600190505b6000600181111561099c57fe5b85610100015160018111156109ad57fe5b141515610a22576040517f08c379a00000000000000000000000000000000000000000000000000000000081526004018080602001828103825260118152602001807f546869732047616d65204e6f7420496e6700000000000000000000000000000081525060200191505060405180910390fd5b838211151515610a9a576040517f08c379a00000000000000000000000000000000000000000000000000000000081526004018080602001828103825260208152602001807f546869732047616d6520427579205072696365206973206e6f74206c696d697481525060200191505060405180910390fd5b7fb6668bab6642a507a81c08f30893aaa47e0c29df8e88ad6b9c19ffd3a2296cf3838588604051808473ffffffffffffffffffffffffffffffffffffffff1673ffffffffffffffffffffffffffffffffffffffff16815260200183815260200182815260200180602001828103825260068152602001807fe8b4ade4b9b0000000000000000000000000000000000000000000000000000081525060200194505050505060405180910390a16000610b706064610b6260025488611a7090919063ffffffff16565b611b0c90919063ffffffff16565b90506000610b9c6064610b8e60005489611a7090919063ffffffff16565b611b0c90919063ffffffff16565b90506000610bc86064610bba6004548a611a7090919063ffffffff16565b611b0c90919063ffffffff16565b90506000600360009054906101000a900473ffffffffffffffffffffffffffffffffffffffff169050610bf9611d37565b601260008973ffffffffffffffffffffffffffffffffffffffff1673ffffffffffffffffffffffffffffffffffffffff1681526020019081526020016000206080604051908101604052908160008201548152602001600182015481526020016002820160009054906101000a900473ffffffffffffffffffffffffffffffffffffffff1673ffffffffffffffffffffffffffffffffffffffff1673ffffffffffffffffffffffffffffffffffffffff1681526020016002820160149054906101000a900460ff1615151515815250509050600073ffffffffffffffffffffffffffffffffffffffff168d73ffffffffffffffffffffffffffffffffffffffff16141515610d3d578c91508c816040019073ffffffffffffffffffffffffffffffffffffffff16908173ffffffffffffffffffffffffffffffffffffffff16815250505b80606001518015610d7f5750600073ffffffffffffffffffffffffffffffffffffffff16816040015173ffffffffffffffffffffffffffffffffffffffff1614155b15610d8c57806040015191505b60008090505b601180549050811015610e2e576000601182815481101515610db057fe5b9060005260206000200160009054906101000a900473ffffffffffffffffffffffffffffffffffffffff169050601460008273ffffffffffffffffffffffffffffffffffffffff1673ffffffffffffffffffffffffffffffffffffffff16815260200190815260200160002060009055508080600101915050610d92565b50600360009054906101000a900473ffffffffffffffffffffffffffffffffffffffff1673ffffffffffffffffffffffffffffffffffffffff166108fc859081150290604051600060405180830381858888f19350505050158015610e97573d6000803e3d6000fd5b507fc0d91c82e97814aa565f0d03c18f64ee424f76125f42d94ddfceff120b4f8995600360009054906101000a900473ffffffffffffffffffffffffffffffffffffffff1685604051808373ffffffffffffffffffffffffffffffffffffffff1673ffffffffffffffffffffffffffffffffffffffff16815260200182815260200180602001828103825260158152602001807fe58f91e694bee5b9b3e58fb0e6898be7bbade8b4b90000000000000000000000815250602001935050505060405180910390a18173ffffffffffffffffffffffffffffffffffffffff166108fc869081150290604051600060405180830381858888f19350505050158015610fa4573d6000803e3d6000fd5b507f4374886bfaca751b7f029933ffc2bad8439bbbb974547c4d1bf00d230c04ca068286604051808373ffffffffffffffffffffffffffffffffffffffff1673ffffffffffffffffffffffffffffffffffffffff16815260200182815260200180602001828103825260128152602001807fe58f91e694bee68ea8e88d90e5a596e58ab10000000000000000000000000000815250602001935050505060405180910390a1600080905060008090505b6011805490508110156111c657600060118281548110151561107257fe5b9060005260206000200160009054906101000a900473ffffffffffffffffffffffffffffffffffffffff1690506000601360008373ffffffffffffffffffffffffffffffffffffffff1673ffffffffffffffffffffffffffffffffffffffff168152602001908152602001600020549050600061110a8b6110fc848b611a7090919063ffffffff16565b611b0c90919063ffffffff16565b905061111f8186611b9f90919063ffffffff16565b945061117381601460008673ffffffffffffffffffffffffffffffffffffffff1673ffffffffffffffffffffffffffffffffffffffff16815260200190815260200160002054611b9f90919063ffffffff16565b601460008573ffffffffffffffffffffffffffffffffffffffff1673ffffffffffffffffffffffffffffffffffffffff168152602001908152602001600020819055505050508080600101915050611054565b5060006111dc878c611c2990919063ffffffff16565b90506111f18682611c2990919063ffffffff16565b90506112068282611c2990919063ffffffff16565b905082606001511561132157601260008b73ffffffffffffffffffffffffffffffffffffffff1673ffffffffffffffffffffffffffffffffffffffff1681526020019081526020016000206080604051908101604052908160008201548152602001600182015481526020016002820160009054906101000a900473ffffffffffffffffffffffffffffffffffffffff1673ffffffffffffffffffffffffffffffffffffffff1673ffffffffffffffffffffffffffffffffffffffff1681526020016002820160149054906101000a900460ff161515151581525050925083836040019073ffffffffffffffffffffffffffffffffffffffff16908173ffffffffffffffffffffffffffffffffffffffff16815250506113c7565b60806040519081016040528060008152602001600081526020018573ffffffffffffffffffffffffffffffffffffffff16815260200160011515815250925060118a90806001815401808255809150509060018203906000526020600020016000909192909190916101000a81548173ffffffffffffffffffffffffffffffffffffffff021916908373ffffffffffffffffffffffffffffffffffffffff160217905550505b6113de8b8460200151611b9f90919063ffffffff16565b83602001818152505082601260008c73ffffffffffffffffffffffffffffffffffffffff1673ffffffffffffffffffffffffffffffffffffffff168152602001908152602001600020600082015181600001556020820151816001015560408201518160020160006101000a81548173ffffffffffffffffffffffffffffffffffffffff021916908373ffffffffffffffffffffffffffffffffffffffff16021790555060608201518160020160146101000a81548160ff02191690831515021790555090505060008090505b6011805490508110156118465760006011828154811015156114c957fe5b9060005260206000200160009054906101000a900473ffffffffffffffffffffffffffffffffffffffff1690506000601460008373ffffffffffffffffffffffffffffffffffffffff1673ffffffffffffffffffffffffffffffffffffffff16815260200190815260200160002054905060008111156118375761154b611d37565b601260008473ffffffffffffffffffffffffffffffffffffffff1673ffffffffffffffffffffffffffffffffffffffff1681526020019081526020016000206080604051908101604052908160008201548152602001600182015481526020016002820160009054906101000a900473ffffffffffffffffffffffffffffffffffffffff1673ffffffffffffffffffffffffffffffffffffffff1673ffffffffffffffffffffffffffffffffffffffff1681526020016002820160149054906101000a900460ff161515151581525050905080606001511561164c5761163e828260000151611b9f90919063ffffffff16565b81600001818152505061168c565b60806040519081016040528083815260200160008152602001600073ffffffffffffffffffffffffffffffffffffffff1681526020016001151581525090505b80601260008573ffffffffffffffffffffffffffffffffffffffff1673ffffffffffffffffffffffffffffffffffffffff168152602001908152602001600020600082015181600001556020820151816001015560408201518160020160006101000a81548173ffffffffffffffffffffffffffffffffffffffff021916908373ffffffffffffffffffffffffffffffffffffffff16021790555060608201518160020160146101000a81548160ff0219169083151502179055509050508273ffffffffffffffffffffffffffffffffffffffff166108fc839081150290604051600060405180830381858888f19350505050158015611790573d6000803e3d6000fd5b507fde3810754a10190424b293c24463eeaa95fa7548782a204075a6acb2170e40e48383604051808373ffffffffffffffffffffffffffffffffffffffff1673ffffffffffffffffffffffffffffffffffffffff16815260200182815260200180602001828103825260128152602001807fe58f91e98081e58886e7baa2e5a596e58ab10000000000000000000000000000815250602001935050505060405180910390a1505b505080806001019150506114ab565b5060008090505b6011805490508110156118e957600060118281548110151561186b57fe5b9060005260206000200160009054906101000a900473ffffffffffffffffffffffffffffffffffffffff169050601460008273ffffffffffffffffffffffffffffffffffffffff1673ffffffffffffffffffffffffffffffffffffffff1681526020019081526020016000206000905550808060010191505061184d565b5061193d6001601360008d73ffffffffffffffffffffffffffffffffffffffff1673ffffffffffffffffffffffffffffffffffffffff16815260200190815260200160002054611b9f90919063ffffffff16565b601360008c73ffffffffffffffffffffffffffffffffffffffff1673ffffffffffffffffffffffffffffffffffffffff1681526020019081526020016000208190555061199960018d6101400151611b9f90919063ffffffff16565b6005600a01819055508c6005600401819055506119c38c606001518e611b9f90919063ffffffff16565b60058001819055506119e3818d6101200151611b9f90919063ffffffff16565b6005600901819055506000611a0660648e60e00151611b9f90919063ffffffff16565b9050611a2e6064611a20838d611a7090919063ffffffff16565b611b0c90919063ffffffff16565b60056006018190555060019e505050505050505050505050505050919050565b600042905090565b6000600160009054906101000a900460ff1660ff16905090565b600080831415611a835760009050611b06565b6000821415611a955760009050611b06565b60008284029050828482811515611aa857fe5b04141515611b01576040517f08c379a0000000000000000000000000000000000000000000000000000000008152600401808060200182810382526021815260200180611d796021913960400191505060405180910390fd5b809150505b92915050565b60008082111515611b85576040517f08c379a000000000000000000000000000000000000000000000000000000000815260040180806020018281038252601a8152602001807f536166654d6174683a206469766973696f6e206279207a65726f00000000000081525060200191505060405180910390fd5b60008284811515611b9257fe5b0490508091505092915050565b6000808284019050838110151515611c1f576040517f08c379a000000000000000000000000000000000000000000000000000000000815260040180806020018281038252601b8152602001807f536166654d6174683a206164646974696f6e206f766572666c6f77000000000081525060200191505060405180910390fd5b8091505092915050565b6000828211151515611ca3576040517f08c379a000000000000000000000000000000000000000000000000000000000815260040180806020018281038252601e8152602001807f536166654d6174683a207375627472616374696f6e206f766572666c6f77000081525060200191505060405180910390fd5b600082840390508091505092915050565b61018060405190810160405280600081526020016060815260200160008152602001600081526020016000815260200160008152602001600081526020016000815260200160006001811115611d0657fe5b81526020016000815260200160008152602001600073ffffffffffffffffffffffffffffffffffffffff1681525090565b6080604051908101604052806000815260200160008152602001600073ffffffffffffffffffffffffffffffffffffffff168152602001600015158152509056fe536166654d6174683a206d756c7469706c69636174696f6e206f766572666c6f77a165627a7a72305820b9b8c178e30831027d15e9fa27f37886d6c025735291e8950400838c32ba697c0029",
  "source": "pragma solidity ^0.5.4;\r\n\r\nimport \"./SafeMath.sol\";\r\nimport \"./Entitys.sol\";\r\n/***\r\n    游戏合约\r\n */\r\ncontract SingleTokenGame{\r\n\r\n    modifier onlyOwner {\r\n    require(\r\n        msg.sender == _owner,\r\n        \"Only owner can call this function.\"\r\n    );\r\n    _;\r\n    }\r\n\r\n    using SafeMath for uint256;\r\n    \r\n\r\n    /**平台费率 */\r\n    uint256 private _fee_rate=10;\r\n\r\n    /**小数位数 */\r\n    //assert(1 wei == 1);\r\n    //assert(1 szabo == 1e12);\r\n    //assert(1 finney == 1e15);\r\n    //assert(1 ether == 1e18);\r\n    uint8 private _decimals=6;\r\n\r\n     /**推荐费率 */\r\n    uint256 private _recommend_rate=10;\r\n    address private _owner;\r\n\r\n    /**分红比例 */\r\n    uint256 private _bonus_rate=30;\r\n    /**\r\n        当前游戏\r\n     */\r\n    Entitys.GameStruct private  current_game;\r\n\r\n    //用户购买记录\r\n    address[] private   game_buy_users;\r\n\r\n\r\n    /***\r\n    游戏->用户->收益\r\n    */\r\n    mapping(address=>Entitys.UserBenefitAndInvestment) private game_investment_benefit;\r\n    /**\r\n    游戏->用户->持有量\r\n     */\r\n    mapping(address=>uint)  private   game_user_buy_count;\r\n\r\n\r\n    //零时用户变量\r\n    mapping(address=>uint256) private  user_credit_log;\r\n\r\n    constructor (uint _game_id,string memory _name,uint _game_times,uint _price,uint _price_upper_rate) public \r\n    {\r\n        _owner=msg.sender;\r\n        uint temp_now=now;\r\n        uint _last_buy_time=temp_now;\r\n        uint _over_time=temp_now.add(_game_times);\r\n        uint _buy_price=_price*(10**uint(_decimals));//1^6次方\r\n        current_game = Entitys.GameStruct(_game_id,_name,temp_now,_game_times,_last_buy_time,_over_time,_buy_price,_price_upper_rate,Entitys.GameStatus.Ing,0,0,address(0));\r\n\r\n    }\r\n    /**\r\n        获取现在时间\r\n        返回当前的秒数\r\n    */\r\n    function getNow() public view returns (uint nowvalue)  \r\n    {\r\n        return now;\r\n    }\r\n     /***\r\n     *  获取小数位数\r\n     * */\r\n    function getDecimals()  public view  returns(uint)\r\n    {\r\n        return _decimals;\r\n    }\r\n    \r\n     /***\r\n     *  获取小数位数\r\n     * */\r\n    function getOwner()  public view  returns(address)\r\n    {\r\n        return _owner;\r\n    }\r\n    \r\n\r\n    /**\r\n    * 获取当前游戏信息\r\n     */\r\n    function getCurrentRoundInfo() public view returns (uint game_id,string memory name,uint begin_time,uint game_times,uint last_buy_time,uint over_time,uint256 price\r\n    ,uint price_upper_rate,Entitys.GameStatus status,uint256 prize_value,uint buy_count\r\n    ,address last_buy_user_address)\r\n    {\r\n         Entitys.GameStruct memory game=current_game;\r\n         game_id=game.game_id;\r\n         name=game.name;\r\n         begin_time=game.begin_time;\r\n         game_times=game.game_times;\r\n         last_buy_time=game.last_buy_time;\r\n         over_time=game.over_time;\r\n         price=game.price;\r\n         price_upper_rate=game.price_upper_rate;\r\n         status=game.status;\r\n         prize_value=game.prize_value;\r\n         buy_count=game.buy_count;\r\n         last_buy_user_address=game.last_buy_user_address;\r\n         return ( game_id,  name, begin_time, game_times, last_buy_time, over_time, price, price_upper_rate,status,prize_value,buy_count,last_buy_user_address);\r\n    }\r\n\r\n\r\n    function askprice() public view returns (uint256 price) {\r\n        Entitys.GameStruct memory game=current_game;\r\n        return game.price;\r\n    }\r\n\r\n    //发送推荐事件\r\n    event SendRecommend(address bidder, uint256 amount,string event_msg);\r\n    //发送事件\r\n    event SendPlatformFee(address bidder, uint256 amount,string event_msg);\r\n    //发送事件\r\n    event CalcBonus(address bidder, uint256 amount,string event_msg);\r\n    \r\n    //发送事件\r\n    event TransferAmount(address bidder, uint256 amount,string event_msg);\r\n\r\n    //购买事件\r\n    event BuyGameEvent(address bidder, uint256 amount,uint256 buy_time,string event_msg);\r\n    /**\r\n    *@recommend_user 推荐用户的地址\r\n    * 购买token\r\n    *1TRX           =\"TJBHq5um63GPdmmjhmSppuep69bygK7cJE====1000000\"\r\n    *0.1TRX         =\"TJBHq5um63GPdmmjhmSppuep69bygK7cJE====100000\"\r\n    *0.000001TRX    =\"TJBHq5um63GPdmmjhmSppuep69bygK7cJE====1\"\r\n    */\r\n    function buy_token(address recommend_user) public payable returns (bool){\r\n     \r\n        // grab time\r\n        uint256 _now = now;\r\n        Entitys.GameStruct memory game=current_game;\r\n        require(game.game_id!=uint(0), \"game not exist\");\r\n        //1 TRX           =\"TJBHq5um63GPdmmjhmSppuep69bygK7cJE====1000000\"\r\n        //0.1 TRX         =\"TJBHq5um63GPdmmjhmSppuep69bygK7cJE====100000\"\r\n        //0.000001 TRX    =\"TJBHq5um63GPdmmjhmSppuep69bygK7cJE====1\"\r\n        uint256 amount=msg.value;//发送过来的钱\r\n        address buyer=msg.sender;//购买者\r\n        uint256 current_price=game.price;//当前的价格\r\n        uint current_buy_count=game.buy_count;//总的购买数量\r\n        if(current_buy_count==uint(0))\r\n        {\r\n            current_buy_count=1;\r\n        }\r\n        require(game.status == Entitys.GameStatus.Ing,\"This Game Not Ing\");\r\n        //当前的价格必须小于支付的价格\r\n        require(current_price  <= amount ,\"This Game Buy Price is not limit\");\r\n        emit BuyGameEvent(buyer,amount,_now,\"购买\");\r\n        //推荐金额\r\n        uint256 recommend_value=amount.mul(_recommend_rate).div(100) ;\r\n\r\n        //平台抽取金额\r\n        uint256 platform_value=amount.mul(_fee_rate).div(100) ;\r\n        //分红金额\r\n        uint256 bonus_value=amount.mul(_bonus_rate).div(100) ;\r\n        //推荐用户\r\n        address temp_recommend_user=_owner;//默认为平台用户\r\n        //游戏-用户-投入/收益\r\n        Entitys.UserBenefitAndInvestment memory bi =game_investment_benefit[buyer]; \r\n        if(recommend_user!=address(0))\r\n        {\r\n            temp_recommend_user=recommend_user;//赋值给零时变量\r\n            bi.recommend_user_address=recommend_user;//赋值给存储\r\n        }  \r\n        if(bi.isValue&&bi.recommend_user_address!=address(0))\r\n        {\r\n            temp_recommend_user=bi.recommend_user_address;\r\n        }\r\n    \r\n        for(uint i = 0; i < game_buy_users.length; i++) {\r\n            address temp_user=game_buy_users[i];\r\n            delete user_credit_log[temp_user];\r\n        }\r\n        address(uint160(_owner)).transfer(platform_value);//发放平台手续费\r\n        //user_credit_log[_owner]=user_credit_log[_owner].add(platform_value);//发放平台手续费\r\n        emit SendPlatformFee(_owner,platform_value,\"发放平台手续费\");\r\n        //user_credit_log[temp_recommend_user]=user_credit_log[temp_recommend_user].add(recommend_value);//发放推荐奖励\r\n        address(uint160(temp_recommend_user)).transfer(recommend_value);//发放推荐奖励\r\n        emit SendRecommend(temp_recommend_user,recommend_value,\"发放推荐奖励\");\r\n        uint256 used_bonus_value=uint256(0);\r\n        //循环购买用户 进行分红\r\n        for(uint i = 0; i < game_buy_users.length; i++) {\r\n            address temp_user=game_buy_users[i];\r\n            uint user_buy_count=game_user_buy_count[temp_user];\r\n            //当前用户的分红量=总分红金额*份额/总份数\r\n            uint256 temp_bonus_value=bonus_value.mul(user_buy_count).div(current_buy_count);\r\n            //emit CalcBonus(temp_user,temp_bonus_value,\"计算分红\");\r\n            used_bonus_value=used_bonus_value.add(temp_bonus_value);\r\n            user_credit_log[temp_user]=user_credit_log[temp_user].add(temp_bonus_value);\r\n        }\r\n        //奖池金额=购买额-推荐奖励-平台手续费-分红金额\r\n        uint256 temp_prize_value=amount.sub(recommend_value);\r\n        temp_prize_value= temp_prize_value.sub(platform_value);\r\n        temp_prize_value=temp_prize_value.sub(used_bonus_value); \r\n    \r\n        if(bi.isValue)\r\n        {\r\n            bi =game_investment_benefit[buyer];\r\n            bi.recommend_user_address=temp_recommend_user;\r\n        }else{\r\n            //收益-投入\r\n            bi = Entitys.UserBenefitAndInvestment(0,0,temp_recommend_user,true);\r\n            //把用户加入购买集合\r\n            game_buy_users.push(buyer);\r\n        }\r\n        bi.touru=bi.touru.add(amount);\r\n        //用户投入额与收益额增加\r\n        game_investment_benefit[buyer]=bi;\r\n        for(uint i = 0; i < game_buy_users.length; i++) {\r\n            address temp_user=game_buy_users[i];\r\n            uint256 t_amount=user_credit_log[temp_user];//用户应得的分红\r\n            //address(this).transfer(t_amount);\r\n            //转RTX To User\r\n            if(t_amount>0)\r\n            {\r\n                //计算分红收益\r\n                Entitys.UserBenefitAndInvestment memory temp_bi =game_investment_benefit[temp_user];\r\n                if(temp_bi.isValue)\r\n                {\r\n                    temp_bi.shouyi=temp_bi.shouyi.add(t_amount);\r\n                }\r\n                else{\r\n                    //收益-投入\r\n                    temp_bi = Entitys.UserBenefitAndInvestment(t_amount,0,address(0),true);\r\n                }\r\n                game_investment_benefit[temp_user]=temp_bi;\r\n                address(uint160(temp_user)).transfer(t_amount);\r\n                emit TransferAmount(temp_user,t_amount,\"发送分红奖励\");\r\n            }\r\n        }\r\n\r\n        for(uint i = 0; i < game_buy_users.length; i++) {\r\n            address temp_user=game_buy_users[i];\r\n            delete user_credit_log[temp_user];\r\n        }\r\n        //用户购买数+1\r\n        game_user_buy_count[buyer]=game_user_buy_count[buyer].add(1);//当前用户总购买份数+1\r\n        current_game.buy_count=game.buy_count.add(1);//总购买份数+1\r\n        current_game.last_buy_time=_now;//最后购买时间\r\n        current_game.over_time=_now.add(game.game_times);//结束时间\r\n        current_game.prize_value=game.prize_value.add(temp_prize_value);//游戏奖池金额=以前的奖池金额+本次的奖池金额\\\r\n        uint256 _price_upper_rate=game.price_upper_rate.add(100);\r\n        //当前价格递增=当前价格*115/100\r\n        current_game.price=current_price.mul(_price_upper_rate).div(100);\r\n        \r\n        return true;\r\n    }\r\n\r\n    \r\n\r\n\r\n\r\n}\r\n\r\n/*\r\nfunction FormatDateTime(UnixTime) { \r\n            var a = UnixTime.replace(\"/Date(\", \"\").replace(\")/\", \"\");\r\n            var date = new Date(parseInt(a));\r\n            var y = date.getFullYear();\r\n            var m = date.getMonth() + 1;\r\n            m = m < 10 ? ('0' + m) : m;\r\n            var d = date.getDate();\r\n            d = d < 10 ? ('0' + d) : d;\r\n            var h = date.getHours();\r\n            h = h < 10 ? ('0' + h) : h;\r\n            var minute = date.getMinutes();\r\n            var second = date.getSeconds();\r\n            minute = minute < 10 ? ('0' + minute) : minute;\r\n            second = second < 10 ? ('0' + second) : second; \r\n     \t\tlet time = y + '-' + m + '-' + d + ' ' + h + ':' + minute + ':' + second;\r\n     \t\tconsole.log(time)       \r\n     \t\treturn time\r\n        }\r\nundefined\r\nvar abc=FormatDateTime(1620467244)*/",
  "sourcePath": "/mnt/f/OtherProducts/tron/maxisacoder-tron-dapp-demo/contracts/SingleTokenGame.sol",
  "compiler": {
    "name": "solc",
    "version": "0.5.4+commit.d15a3125.mod.Emscripten.clang"
  },
  "schemaVersion": "2.0.1",
  "updatedAt": "2021-05-12T04:04:39.219Z"
}